{"abi":[{"type":"constructor","inputs":[{"name":"_reputationOracle","type":"address","internalType":"address"},{"name":"_poolManager","type":"address","internalType":"address"}],"stateMutability":"nonpayable"},{"type":"function","name":"FEE_HIGH_TRUST","inputs":[],"outputs":[{"name":"","type":"uint24","internalType":"uint24"}],"stateMutability":"view"},{"type":"function","name":"FEE_LOW_TRUST","inputs":[],"outputs":[{"name":"","type":"uint24","internalType":"uint24"}],"stateMutability":"view"},{"type":"function","name":"FEE_MEDIUM_TRUST","inputs":[],"outputs":[{"name":"","type":"uint24","internalType":"uint24"}],"stateMutability":"view"},{"type":"function","name":"HIGH_TRUST_THRESHOLD","inputs":[],"outputs":[{"name":"","type":"uint256","internalType":"uint256"}],"stateMutability":"view"},{"type":"function","name":"MEDIUM_TRUST_THRESHOLD","inputs":[],"outputs":[{"name":"","type":"uint256","internalType":"uint256"}],"stateMutability":"view"},{"type":"function","name":"MIN_SCORE_TO_TRADE","inputs":[],"outputs":[{"name":"","type":"uint256","internalType":"uint256"}],"stateMutability":"view"},{"type":"function","name":"afterSwap","inputs":[{"name":"sender","type":"address","internalType":"address"},{"name":"","type":"bytes","internalType":"bytes"},{"name":"hookData","type":"bytes","internalType":"bytes"}],"outputs":[{"name":"selector","type":"bytes4","internalType":"bytes4"}],"stateMutability":"view"},{"type":"function","name":"beforeSwap","inputs":[{"name":"sender","type":"address","internalType":"address"},{"name":"","type":"bytes","internalType":"bytes"},{"name":"hookData","type":"bytes","internalType":"bytes"}],"outputs":[{"name":"selector","type":"bytes4","internalType":"bytes4"},{"name":"fee","type":"uint24","internalType":"uint24"}],"stateMutability":"nonpayable"},{"type":"function","name":"calculateFee","inputs":[{"name":"score","type":"uint256","internalType":"uint256"}],"outputs":[{"name":"fee","type":"uint24","internalType":"uint24"}],"stateMutability":"pure"},{"type":"function","name":"canTrade","inputs":[{"name":"account","type":"address","internalType":"address"}],"outputs":[{"name":"allowed","type":"bool","internalType":"bool"}],"stateMutability":"view"},{"type":"function","name":"getFeeForAccount","inputs":[{"name":"account","type":"address","internalType":"address"}],"outputs":[{"name":"fee","type":"uint24","internalType":"uint24"}],"stateMutability":"view"},{"type":"function","name":"getHookPermissions","inputs":[],"outputs":[{"name":"permissions","type":"uint160","internalType":"uint160"}],"stateMutability":"pure"},{"type":"function","name":"owner","inputs":[],"outputs":[{"name":"","type":"address","internalType":"address"}],"stateMutability":"view"},{"type":"function","name":"pause","inputs":[],"outputs":[],"stateMutability":"nonpayable"},{"type":"function","name":"paused","inputs":[],"outputs":[{"name":"","type":"bool","internalType":"bool"}],"stateMutability":"view"},{"type":"function","name":"poolManager","inputs":[],"outputs":[{"name":"","type":"address","internalType":"contract IPoolManager"}],"stateMutability":"view"},{"type":"function","name":"renounceOwnership","inputs":[],"outputs":[],"stateMutability":"nonpayable"},{"type":"function","name":"reputationOracle","inputs":[],"outputs":[{"name":"","type":"address","internalType":"contract IReputationOracle"}],"stateMutability":"view"},{"type":"function","name":"transferOwnership","inputs":[{"name":"newOwner","type":"address","internalType":"address"}],"outputs":[],"stateMutability":"nonpayable"},{"type":"function","name":"unpause","inputs":[],"outputs":[],"stateMutability":"nonpayable"},{"type":"function","name":"validateTrade","inputs":[{"name":"trader","type":"address","internalType":"address"}],"outputs":[{"name":"fee","type":"uint24","internalType":"uint24"}],"stateMutability":"view"},{"type":"event","name":"OracleUpdated","inputs":[{"name":"oldOracle","type":"address","indexed":true,"internalType":"address"},{"name":"newOracle","type":"address","indexed":true,"internalType":"address"}],"anonymous":false},{"type":"event","name":"OwnershipTransferred","inputs":[{"name":"previousOwner","type":"address","indexed":true,"internalType":"address"},{"name":"newOwner","type":"address","indexed":true,"internalType":"address"}],"anonymous":false},{"type":"event","name":"Paused","inputs":[{"name":"account","type":"address","indexed":false,"internalType":"address"}],"anonymous":false},{"type":"event","name":"SwapWithReputation","inputs":[{"name":"trader","type":"address","indexed":true,"internalType":"address"},{"name":"reputationScore","type":"uint256","indexed":false,"internalType":"uint256"},{"name":"feeApplied","type":"uint24","indexed":false,"internalType":"uint24"},{"name":"timestamp","type":"uint256","indexed":false,"internalType":"uint256"}],"anonymous":false},{"type":"event","name":"TradeBlocked","inputs":[{"name":"trader","type":"address","indexed":true,"internalType":"address"},{"name":"reputationScore","type":"uint256","indexed":false,"internalType":"uint256"},{"name":"reason","type":"string","indexed":false,"internalType":"string"}],"anonymous":false},{"type":"event","name":"Unpaused","inputs":[{"name":"account","type":"address","indexed":false,"internalType":"address"}],"anonymous":false},{"type":"error","name":"AccountBlocked","inputs":[{"name":"account","type":"address","internalType":"address"}]},{"type":"error","name":"EnforcedPause","inputs":[]},{"type":"error","name":"ExpectedPause","inputs":[]},{"type":"error","name":"HookPaused","inputs":[]},{"type":"error","name":"OracleFailure","inputs":[]},{"type":"error","name":"OwnableInvalidOwner","inputs":[{"name":"owner","type":"address","internalType":"address"}]},{"type":"error","name":"OwnableUnauthorizedAccount","inputs":[{"name":"account","type":"address","internalType":"address"}]},{"type":"error","name":"ReputationTooLow","inputs":[{"name":"account","type":"address","internalType":"address"},{"name":"score","type":"uint256","internalType":"uint256"}]},{"type":"error","name":"ZeroAddress","inputs":[]}],"bytecode":{"object":"0x60c060405234801561000f575f80fd5b50604051610fc0380380610fc083398101604081905261002e91610135565b338061005357604051631e4fbdf760e01b81525f600482015260240160405180910390fd5b61005c816100c2565b506001600160a01b0382166100845760405163d92e233d60e01b815260040160405180910390fd5b6001600160a01b0381166100ab5760405163d92e233d60e01b815260040160405180910390fd5b6001600160a01b039182166080521660a052610166565b5f80546001600160a01b03838116610100818102610100600160a81b0319851617855560405193049190911692909183917f8be0079c531659141344cd1fd0a4f28419497f9722a3daafe3b4186f6b6457e091a35050565b80516001600160a01b0381168114610130575f80fd5b919050565b5f8060408385031215610146575f80fd5b61014f8361011a565b915061015d6020840161011a565b90509250929050565b60805160a051610e086101b85f395f61029e01525f81816102e101528181610324015281816103de015281816104fb01528181610625015281816108ad0152818161094601526109f50152610e085ff3fe608060405234801561000f575f80fd5b5060043610610132575f3560e01c806382be46ba116100b4578063d44686fd11610079578063d44686fd14610288578063d5325c7f14610291578063dc4c90d314610299578063ea4979bd146102c0578063f2fde38b146102c9578063fad844c1146102dc575f80fd5b806382be46ba146102355780638456cb591461023d5780638da5cb5b1461024557806399a5d7471461026e578063c4e833ce14610281575f80fd5b8063559f05dc116100fa578063559f05dc146101d75780635c975abb146101fa5780635f6b5ebd14610204578063715018a61461021a5780637ffa7f0014610222575f80fd5b806301dc8077146101365780633f4ba83a146101625780633f6983941461016c57806345516cca146101a35780634d518a5e146101cf575b5f80fd5b610149610144366004610c50565b610303565b60405162ffffff90911681526020015b60405180910390f35b61016a61048f565b005b61017f61017a366004610cae565b6104a1565b604080516001600160e01b0319909316835262ffffff909116602083015201610159565b6101b66101b1366004610cae565b61084d565b6040516001600160e01b03199091168152602001610159565b610149601681565b6101ea6101e5366004610c50565b61088c565b6040519015158152602001610159565b5f5460ff166101ea565b61020c606481565b604051908152602001610159565b61016a6109c3565b610149610230366004610c50565b6109d4565b610149600f81565b61016a610a66565b5f5461010090046001600160a01b03165b6040516001600160a01b039091168152602001610159565b61014961027c366004610d29565b610a76565b6003610256565b61020c61035281565b610149601e81565b6102567f000000000000000000000000000000000000000000000000000000000000000081565b61020c61025881565b61016a6102d7366004610c50565b610aa1565b6102567f000000000000000000000000000000000000000000000000000000000000000081565b60405163fbac395160e01b81526001600160a01b0382811660048301525f917f00000000000000000000000000000000000000000000000000000000000000009091169063fbac395190602401602060405180830381865afa15801561036b573d5f803e3d5ffd5b505050506040513d601f19601f8201168201806040525081019061038f9190610d40565b156103bd576040516328e9b38560e01b81526001600160a01b03831660048201526024015b60405180910390fd5b604051630d47875d60e41b81526001600160a01b0383811660048301525f917f00000000000000000000000000000000000000000000000000000000000000009091169063d47875d090602401602060405180830381865afa158015610425573d5f803e3d5ffd5b505050506040513d601f19601f820116820180604052508101906104499190610d5f565b9050606481101561047f5760405163f7fe176360e01b81526001600160a01b0384166004820152602481018290526044016103b4565b61048881610a76565b9392505050565b610497610ade565b61049f610b10565b565b5f806104ab610b61565b5f60148410156104bb57876104d5565b6104c860145f8688610d76565b6104d191610d9d565b60601c5b604051630d47875d60e41b81526001600160a01b0382811660048301529192505f9182917f00000000000000000000000000000000000000000000000000000000000000009091169063d47875d090602401602060405180830381865afa925050508015610560575060408051601f3d908101601f1916820190925261055d91810190610d5f565b60015b61060157826001600160a01b03167ff1786360b37a8efe6e50f637df8568f9af54d1559fe7b519101ea27e07c6a3225f6040516105e29181526040602082018190526025908201527f4f7261636c65206661696c757265202d2066616c6c6261636b206665652061706060820152641c1b1a595960da1b608082015260a00190565b60405180910390a250630fda60e560e21b9350601e9250610843915050565b60405163fbac395160e01b81526001600160a01b03858116600483015291935083917f0000000000000000000000000000000000000000000000000000000000000000169063fbac395190602401602060405180830381865afa925050508015610688575060408051601f3d908101601f1916820190925261068591810190610d40565b60015b610694575f9150610697565b91505b50801561073a57826001600160a01b03167ff1786360b37a8efe6e50f637df8568f9af54d1559fe7b519101ea27e07c6a3228360405161070e9181526040602082018190526019908201527f4163636f756e7420626c6f636b6564206279206f7261636c6500000000000000606082015260800190565b60405180910390a26040516328e9b38560e01b81526001600160a01b03841660048201526024016103b4565b60648210156107db57826001600160a01b03167ff1786360b37a8efe6e50f637df8568f9af54d1559fe7b519101ea27e07c6a322836040516107a89181526040602082018190526012908201527152657075746174696f6e20746f6f206c6f7760701b606082015260800190565b60405180910390a260405163f7fe176360e01b81526001600160a01b0384166004820152602481018390526044016103b4565b6107e482610a76565b6040805184815262ffffff83166020820152428183015290519195506001600160a01b038516917fb8ca9be02c1d1ff61dd4b4dd6f49109915b83fef721348a39fef7f9b535f53479181900360600190a250630fda60e560e21b935050505b9550959350505050565b5f80601483101561085e5786610878565b61086b60145f8587610d76565b61087491610d9d565b60601c5b506322a8b66560e11b979650505050505050565b60405163fbac395160e01b81526001600160a01b0382811660048301525f917f00000000000000000000000000000000000000000000000000000000000000009091169063fbac395190602401602060405180830381865afa925050508015610912575060408051601f3d908101601f1916820190925261090f91810190610d40565b60015b1561092757801561092557505f92915050565b505b604051630d47875d60e41b81526001600160a01b0383811660048301527f0000000000000000000000000000000000000000000000000000000000000000169063d47875d090602401602060405180830381865afa9250505080156109a9575060408051601f3d908101601f191682019092526109a691810190610d5f565b60015b6109b457505f919050565b6064111592915050565b919050565b6109cb610ade565b61049f5f610b84565b604051630d47875d60e41b81526001600160a01b0382811660048301525f917f00000000000000000000000000000000000000000000000000000000000000009091169063d47875d090602401602060405180830381865afa925050508015610a5a575060408051601f3d908101601f19168201909252610a5791810190610d5f565b60015b61047f5750601e919050565b610a6e610ade565b61049f610bdc565b5f6103528210610a885750600f919050565b6102588210610a9957506016919050565b50601e919050565b610aa9610ade565b6001600160a01b038116610ad257604051631e4fbdf760e01b81525f60048201526024016103b4565b610adb81610b84565b50565b5f546001600160a01b0361010090910416331461049f5760405163118cdaa760e01b81523360048201526024016103b4565b610b18610c18565b5f805460ff191690557f5db9ee0a495bf2e6ff9c91a7834c1ba4fdd244a5e8aa4e537bd38aeae4b073aa335b6040516001600160a01b03909116815260200160405180910390a1565b5f5460ff161561049f5760405163d93c066560e01b815260040160405180910390fd5b5f80546001600160a01b03838116610100818102610100600160a81b0319851617855560405193049190911692909183917f8be0079c531659141344cd1fd0a4f28419497f9722a3daafe3b4186f6b6457e091a35050565b610be4610b61565b5f805460ff191660011790557f62e78cea01bee320cd4e420270b5ea74000d11b0c9f74754ebdbfc544b05a258610b443390565b5f5460ff1661049f57604051638dfc202b60e01b815260040160405180910390fd5b80356001600160a01b03811681146109be575f80fd5b5f60208284031215610c60575f80fd5b61048882610c3a565b5f8083601f840112610c79575f80fd5b50813567ffffffffffffffff811115610c90575f80fd5b602083019150836020828501011115610ca7575f80fd5b9250929050565b5f805f805f60608688031215610cc2575f80fd5b610ccb86610c3a565b9450602086013567ffffffffffffffff80821115610ce7575f80fd5b610cf389838a01610c69565b90965094506040880135915080821115610d0b575f80fd5b50610d1888828901610c69565b969995985093965092949392505050565b5f60208284031215610d39575f80fd5b5035919050565b5f60208284031215610d50575f80fd5b81518015158114610488575f80fd5b5f60208284031215610d6f575f80fd5b5051919050565b5f8085851115610d84575f80fd5b83861115610d90575f80fd5b5050820193919092039150565b6bffffffffffffffffffffffff198135818116916014851015610dca5780818660140360031b1b83161692505b50509291505056fea2646970667358221220cc3f8979f0d9ae9cb70d2064940551949f8f3e18442eba90c1e8728d981c3a9864736f6c63430008180033","linkReferences":{}},"methodIdentifiers":{"FEE_HIGH_TRUST()":"82be46ba","FEE_LOW_TRUST()":"d5325c7f","FEE_MEDIUM_TRUST()":"4d518a5e","HIGH_TRUST_THRESHOLD()":"d44686fd","MEDIUM_TRUST_THRESHOLD()":"ea4979bd","MIN_SCORE_TO_TRADE()":"5f6b5ebd","afterSwap(address,bytes,bytes)":"45516cca","beforeSwap(address,bytes,bytes)":"3f698394","calculateFee(uint256)":"99a5d747","canTrade(address)":"559f05dc","getFeeForAccount(address)":"7ffa7f00","getHookPermissions()":"c4e833ce","owner()":"8da5cb5b","pause()":"8456cb59","paused()":"5c975abb","poolManager()":"dc4c90d3","renounceOwnership()":"715018a6","reputationOracle()":"fad844c1","transferOwnership(address)":"f2fde38b","unpause()":"3f4ba83a","validateTrade(address)":"01dc8077"},"id":37}