{"abi":[{"type":"constructor","inputs":[],"stateMutability":"nonpayable"},{"type":"function","name":"DEFAULT_SCORE","inputs":[],"outputs":[{"name":"","type":"uint256","internalType":"uint256"}],"stateMutability":"view"},{"type":"function","name":"MAX_BATCH_SIZE","inputs":[],"outputs":[{"name":"","type":"uint256","internalType":"uint256"}],"stateMutability":"view"},{"type":"function","name":"MAX_SCORE","inputs":[],"outputs":[{"name":"","type":"uint256","internalType":"uint256"}],"stateMutability":"view"},{"type":"function","name":"batchSetScores","inputs":[{"name":"accounts","type":"address[]","internalType":"address[]"},{"name":"_scores","type":"uint256[]","internalType":"uint256[]"}],"outputs":[],"stateMutability":"nonpayable"},{"type":"function","name":"blocked","inputs":[{"name":"","type":"address","internalType":"address"}],"outputs":[{"name":"","type":"bool","internalType":"bool"}],"stateMutability":"view"},{"type":"function","name":"decreaseScore","inputs":[{"name":"account","type":"address","internalType":"address"},{"name":"delta","type":"uint256","internalType":"uint256"}],"outputs":[],"stateMutability":"nonpayable"},{"type":"function","name":"getProjectScore","inputs":[{"name":"project","type":"address","internalType":"address"}],"outputs":[{"name":"","type":"uint256","internalType":"uint256"}],"stateMutability":"view"},{"type":"function","name":"getScore","inputs":[{"name":"account","type":"address","internalType":"address"}],"outputs":[{"name":"","type":"uint256","internalType":"uint256"}],"stateMutability":"view"},{"type":"function","name":"hasMinimumReputation","inputs":[{"name":"account","type":"address","internalType":"address"},{"name":"minScore","type":"uint256","internalType":"uint256"}],"outputs":[{"name":"","type":"bool","internalType":"bool"}],"stateMutability":"view"},{"type":"function","name":"increaseScore","inputs":[{"name":"account","type":"address","internalType":"address"},{"name":"delta","type":"uint256","internalType":"uint256"}],"outputs":[],"stateMutability":"nonpayable"},{"type":"function","name":"isBlocked","inputs":[{"name":"account","type":"address","internalType":"address"}],"outputs":[{"name":"","type":"bool","internalType":"bool"}],"stateMutability":"view"},{"type":"function","name":"owner","inputs":[],"outputs":[{"name":"","type":"address","internalType":"address"}],"stateMutability":"view"},{"type":"function","name":"projectScores","inputs":[{"name":"","type":"address","internalType":"address"}],"outputs":[{"name":"","type":"uint256","internalType":"uint256"}],"stateMutability":"view"},{"type":"function","name":"renounceOwnership","inputs":[],"outputs":[],"stateMutability":"nonpayable"},{"type":"function","name":"scores","inputs":[{"name":"","type":"address","internalType":"address"}],"outputs":[{"name":"","type":"uint256","internalType":"uint256"}],"stateMutability":"view"},{"type":"function","name":"setBlocked","inputs":[{"name":"account","type":"address","internalType":"address"},{"name":"_blocked","type":"bool","internalType":"bool"}],"outputs":[],"stateMutability":"nonpayable"},{"type":"function","name":"setProjectScore","inputs":[{"name":"project","type":"address","internalType":"address"},{"name":"score","type":"uint256","internalType":"uint256"}],"outputs":[],"stateMutability":"nonpayable"},{"type":"function","name":"setScore","inputs":[{"name":"account","type":"address","internalType":"address"},{"name":"score","type":"uint256","internalType":"uint256"}],"outputs":[],"stateMutability":"nonpayable"},{"type":"function","name":"setUpdater","inputs":[{"name":"updater","type":"address","internalType":"address"},{"name":"authorized","type":"bool","internalType":"bool"}],"outputs":[],"stateMutability":"nonpayable"},{"type":"function","name":"transferOwnership","inputs":[{"name":"newOwner","type":"address","internalType":"address"}],"outputs":[],"stateMutability":"nonpayable"},{"type":"function","name":"updaters","inputs":[{"name":"","type":"address","internalType":"address"}],"outputs":[{"name":"","type":"bool","internalType":"bool"}],"stateMutability":"view"},{"type":"event","name":"AccountBlocked","inputs":[{"name":"account","type":"address","indexed":true,"internalType":"address"},{"name":"blocked","type":"bool","indexed":false,"internalType":"bool"}],"anonymous":false},{"type":"event","name":"OwnershipTransferred","inputs":[{"name":"previousOwner","type":"address","indexed":true,"internalType":"address"},{"name":"newOwner","type":"address","indexed":true,"internalType":"address"}],"anonymous":false},{"type":"event","name":"ProjectScoreUpdated","inputs":[{"name":"project","type":"address","indexed":true,"internalType":"address"},{"name":"oldScore","type":"uint256","indexed":false,"internalType":"uint256"},{"name":"newScore","type":"uint256","indexed":false,"internalType":"uint256"}],"anonymous":false},{"type":"event","name":"ScoreUpdated","inputs":[{"name":"account","type":"address","indexed":true,"internalType":"address"},{"name":"oldScore","type":"uint256","indexed":false,"internalType":"uint256"},{"name":"newScore","type":"uint256","indexed":false,"internalType":"uint256"},{"name":"updater","type":"address","indexed":true,"internalType":"address"}],"anonymous":false},{"type":"event","name":"UpdaterSet","inputs":[{"name":"updater","type":"address","indexed":true,"internalType":"address"},{"name":"authorized","type":"bool","indexed":false,"internalType":"bool"}],"anonymous":false},{"type":"error","name":"ArrayLengthMismatch","inputs":[]},{"type":"error","name":"BatchTooLarge","inputs":[{"name":"size","type":"uint256","internalType":"uint256"}]},{"type":"error","name":"NotAuthorized","inputs":[]},{"type":"error","name":"OwnableInvalidOwner","inputs":[{"name":"owner","type":"address","internalType":"address"}]},{"type":"error","name":"OwnableUnauthorizedAccount","inputs":[{"name":"account","type":"address","internalType":"address"}]},{"type":"error","name":"ScoreTooHigh","inputs":[{"name":"score","type":"uint256","internalType":"uint256"}]},{"type":"error","name":"ZeroAddress","inputs":[]}],"bytecode":{"object":"0x608060405234801561000f575f80fd5b50338061003557604051631e4fbdf760e01b81525f600482015260240160405180910390fd5b61003e8161005d565b50335f908152600460205260409020805460ff191660011790556100ac565b5f80546001600160a01b038381166001600160a01b0319831681178455604051919092169283917f8be0079c531659141344cd1fd0a4f28419497f9722a3daafe3b4186f6b6457e09190a35050565b610e5e806100b95f395ff3fe608060405234801561000f575f80fd5b5060043610610131575f3560e01c8063b46b1276116100b4578063df65e9e411610079578063df65e9e414610285578063e145447c1461028e578063e5962195146102a1578063ee0fcc75146102c3578063f2fde38b146102d6578063fbac3951146102e9575f80fd5b8063b46b127614610231578063b89f29ab14610244578063cfdbf25414610257578063d3ec35b71461025f578063d47875d014610272575f80fd5b806354a055c1116100fa57806354a055c1146101ab578063715018a6146101dd57806376dd110f146101e55780638da5cb5b14610204578063a5a8a8841461021e575f80fd5b80620af2a1146101355780631a1533911461014a57806322eb82af1461015d57806327ff62231461018f57806337edbcc914610198575b5f80fd5b610148610143366004610c91565b610314565b005b610148610158366004610c91565b6103e1565b61017c61016b366004610cca565b60026020525f908152604090205481565b6040519081526020015b60405180910390f35b61017c6103e881565b61017c6101a6366004610cca565b610467565b6101cd6101b9366004610cca565b60046020525f908152604090205460ff1681565b6040519015158152602001610186565b610148610496565b61017c6101f3366004610cca565b60016020525f908152604090205481565b5f546040516001600160a01b039091168152602001610186565b6101cd61022c366004610ce3565b6104a9565b61014861023f366004610ce3565b6104fb565b610148610252366004610ce3565b610613565b61017c603281565b61014861026d366004610ce3565b61070a565b61017c610280366004610cca565b610819565b61017c6101f481565b61014861029c366004610d53565b61086f565b6101cd6102af366004610cca565b60036020525f908152604090205460ff1681565b6101486102d1366004610ce3565b610adc565b6101486102e4366004610cca565b610bbe565b6101cd6102f7366004610cca565b6001600160a01b03165f9081526003602052604090205460ff1690565b335f9081526004602052604090205460ff1615801561033d57505f546001600160a01b03163314155b1561035b5760405163ea8e4eb560e01b815260040160405180910390fd5b6001600160a01b0382166103825760405163d92e233d60e01b815260040160405180910390fd5b6001600160a01b0382165f81815260036020908152604091829020805460ff191685151590811790915591519182527f8e70e14e471dbdcf264ee2e89920955b49947c20c78a6685e48793d50e75a0b491015b60405180910390a25050565b6103e9610bfb565b6001600160a01b0382166104105760405163d92e233d60e01b815260040160405180910390fd5b6001600160a01b0382165f81815260046020908152604091829020805460ff191685151590811790915591519182527f9e0f3fc17a5f47bd46f3cab56d4d8a9ea9f32ad817657c3ea8e5dff28da3e3e791016103d5565b6001600160a01b0381165f9081526002602052604081205480820361049057506101f492915050565b92915050565b61049e610bfb565b6104a75f610c27565b565b6001600160a01b0382165f90815260016020526040812054801580156104e757506001600160a01b0384165f9081526003602052604090205460ff16155b156104f157506101f45b9091111592915050565b335f9081526004602052604090205460ff1615801561052457505f546001600160a01b03163314155b156105425760405163ea8e4eb560e01b815260040160405180910390fd5b6001600160a01b0382166105695760405163d92e233d60e01b815260040160405180910390fd5b6001600160a01b0382165f9081526003602052604090205460ff1661060f576001600160a01b0382165f90815260016020526040812054908190036105ad57506101f45b5f8282116105bb575f6105c5565b6105c58383610dce565b6001600160a01b0385165f81815260016020908152604091829020849055815186815290810184905292935033925f80516020610e0983398151915291015b60405180910390a350505b5050565b335f9081526004602052604090205460ff1615801561063c57505f546001600160a01b03163314155b1561065a5760405163ea8e4eb560e01b815260040160405180910390fd5b6001600160a01b0382166106815760405163d92e233d60e01b815260040160405180910390fd5b6103e88111156106ac576040516367851c5360e01b8152600481018290526024015b60405180910390fd5b6001600160a01b0382165f81815260026020908152604091829020805490859055825181815291820185905292917fd47b9745b5f26773d0d6d09a3cd67dfa7dbecf9000dd6d3aa57aabbbfbc1487d910160405180910390a2505050565b335f9081526004602052604090205460ff1615801561073357505f546001600160a01b03163314155b156107515760405163ea8e4eb560e01b815260040160405180910390fd5b6001600160a01b0382166107785760405163d92e233d60e01b815260040160405180910390fd5b6001600160a01b0382165f9081526003602052604090205460ff1661060f576001600160a01b0382165f90815260016020526040812054908190036107bc57506101f45b5f6107c78383610de1565b90506103e88111156107d857506103e85b6001600160a01b0384165f8181526001602090815260409182902084905581518581529081018490523392915f80516020610e098339815191529101610604565b6001600160a01b0381165f9081526003602052604081205460ff161561084057505f919050565b6001600160a01b0382165f9081526001602052604090205480156108645780610868565b6101f45b9392505050565b335f9081526004602052604090205460ff1615801561089857505f546001600160a01b03163314155b156108b65760405163ea8e4eb560e01b815260040160405180910390fd5b8281146108d65760405163512509d360e11b815260040160405180910390fd5b60328311156108fb5760405163533dcfcf60e11b8152600481018490526024016106a3565b5f5b83811015610ad5575f85858381811061091857610918610df4565b905060200201602081019061092d9190610cca565b6001600160a01b0316036109545760405163d92e233d60e01b815260040160405180910390fd5b6103e883838381811061096957610969610df4565b9050602002013511156109ab5782828281811061098857610988610df4565b905060200201356040516367851c5360e01b81526004016106a391815260200190565b5f60015f8787858181106109c1576109c1610df4565b90506020020160208101906109d69190610cca565b6001600160a01b03166001600160a01b031681526020019081526020015f20549050838383818110610a0a57610a0a610df4565b9050602002013560015f888886818110610a2657610a26610df4565b9050602002016020810190610a3b9190610cca565b6001600160a01b0316815260208101919091526040015f205533868684818110610a6757610a67610df4565b9050602002016020810190610a7c9190610cca565b6001600160a01b03165f80516020610e0983398151915283878787818110610aa657610aa6610df4565b90506020020135604051610ac4929190918252602082015260400190565b60405180910390a3506001016108fd565b5050505050565b335f9081526004602052604090205460ff16158015610b0557505f546001600160a01b03163314155b15610b235760405163ea8e4eb560e01b815260040160405180910390fd5b6001600160a01b038216610b4a5760405163d92e233d60e01b815260040160405180910390fd5b6103e8811115610b70576040516367851c5360e01b8152600481018290526024016106a3565b6001600160a01b0382165f81815260016020908152604091829020805490859055825181815291820185905292339290915f80516020610e09833981519152910160405180910390a3505050565b610bc6610bfb565b6001600160a01b038116610bef57604051631e4fbdf760e01b81525f60048201526024016106a3565b610bf881610c27565b50565b5f546001600160a01b031633146104a75760405163118cdaa760e01b81523360048201526024016106a3565b5f80546001600160a01b038381166001600160a01b0319831681178455604051919092169283917f8be0079c531659141344cd1fd0a4f28419497f9722a3daafe3b4186f6b6457e09190a35050565b80356001600160a01b0381168114610c8c575f80fd5b919050565b5f8060408385031215610ca2575f80fd5b610cab83610c76565b915060208301358015158114610cbf575f80fd5b809150509250929050565b5f60208284031215610cda575f80fd5b61086882610c76565b5f8060408385031215610cf4575f80fd5b610cfd83610c76565b946020939093013593505050565b5f8083601f840112610d1b575f80fd5b50813567ffffffffffffffff811115610d32575f80fd5b6020830191508360208260051b8501011115610d4c575f80fd5b9250929050565b5f805f8060408587031215610d66575f80fd5b843567ffffffffffffffff80821115610d7d575f80fd5b610d8988838901610d0b565b90965094506020870135915080821115610da1575f80fd5b50610dae87828801610d0b565b95989497509550505050565b634e487b7160e01b5f52601160045260245ffd5b8181038181111561049057610490610dba565b8082018082111561049057610490610dba565b634e487b7160e01b5f52603260045260245ffdfe3816705bc8dd5a867fb8f6bc7235c2198e80c3606e1687d753c47f2e97029e86a2646970667358221220f5b855360a8654c230e1a22f0ffd50cb075144e1f44d09c72ba24fdf5d7372be64736f6c63430008180033","linkReferences":{}},"methodIdentifiers":{"DEFAULT_SCORE()":"df65e9e4","MAX_BATCH_SIZE()":"cfdbf254","MAX_SCORE()":"27ff6223","batchSetScores(address[],uint256[])":"e145447c","blocked(address)":"e5962195","decreaseScore(address,uint256)":"b46b1276","getProjectScore(address)":"37edbcc9","getScore(address)":"d47875d0","hasMinimumReputation(address,uint256)":"a5a8a884","increaseScore(address,uint256)":"d3ec35b7","isBlocked(address)":"fbac3951","owner()":"8da5cb5b","projectScores(address)":"22eb82af","renounceOwnership()":"715018a6","scores(address)":"76dd110f","setBlocked(address,bool)":"000af2a1","setProjectScore(address,uint256)":"b89f29ab","setScore(address,uint256)":"ee0fcc75","setUpdater(address,bool)":"1a153391","transferOwnership(address)":"f2fde38b","updaters(address)":"54a055c1"},"id":40}